{
  "_format": "hh-sol-artifact-1",
  "contractName": "Domains",
  "sourceName": "contracts/Domains.sol",
  "abi": [
    {
      "inputs": [
        {
          "internalType": "string",
          "name": "_tld",
          "type": "string"
        }
      ],
      "stateMutability": "payable",
      "type": "constructor"
    },
    {
      "inputs": [
        {
          "internalType": "string",
          "name": "name",
          "type": "string"
        }
      ],
      "name": "DomainNotAvailable",
      "type": "error"
    },
    {
      "inputs": [
        {
          "internalType": "uint256",
          "name": "_price",
          "type": "uint256"
        }
      ],
      "name": "NotenoughMatic",
      "type": "error"
    },
    {
      "inputs": [],
      "name": "StringTooShort",
      "type": "error"
    },
    {
      "anonymous": false,
      "inputs": [
        {
          "indexed": true,
          "internalType": "address",
          "name": "owner",
          "type": "address"
        },
        {
          "indexed": true,
          "internalType": "address",
          "name": "approved",
          "type": "address"
        },
        {
          "indexed": true,
          "internalType": "uint256",
          "name": "tokenId",
          "type": "uint256"
        }
      ],
      "name": "Approval",
      "type": "event"
    },
    {
      "anonymous": false,
      "inputs": [
        {
          "indexed": true,
          "internalType": "address",
          "name": "owner",
          "type": "address"
        },
        {
          "indexed": true,
          "internalType": "address",
          "name": "operator",
          "type": "address"
        },
        {
          "indexed": false,
          "internalType": "bool",
          "name": "approved",
          "type": "bool"
        }
      ],
      "name": "ApprovalForAll",
      "type": "event"
    },
    {
      "anonymous": false,
      "inputs": [
        {
          "indexed": true,
          "internalType": "address",
          "name": "previousOwner",
          "type": "address"
        },
        {
          "indexed": true,
          "internalType": "address",
          "name": "newOwner",
          "type": "address"
        }
      ],
      "name": "OwnershipTransferred",
      "type": "event"
    },
    {
      "anonymous": false,
      "inputs": [
        {
          "indexed": true,
          "internalType": "address",
          "name": "from",
          "type": "address"
        },
        {
          "indexed": true,
          "internalType": "address",
          "name": "to",
          "type": "address"
        },
        {
          "indexed": true,
          "internalType": "uint256",
          "name": "tokenId",
          "type": "uint256"
        }
      ],
      "name": "Transfer",
      "type": "event"
    },
    {
      "inputs": [
        {
          "internalType": "address",
          "name": "to",
          "type": "address"
        },
        {
          "internalType": "uint256",
          "name": "tokenId",
          "type": "uint256"
        }
      ],
      "name": "approve",
      "outputs": [],
      "stateMutability": "nonpayable",
      "type": "function"
    },
    {
      "inputs": [
        {
          "internalType": "address",
          "name": "owner",
          "type": "address"
        }
      ],
      "name": "balanceOf",
      "outputs": [
        {
          "internalType": "uint256",
          "name": "",
          "type": "uint256"
        }
      ],
      "stateMutability": "view",
      "type": "function"
    },
    {
      "inputs": [
        {
          "internalType": "string",
          "name": "",
          "type": "string"
        }
      ],
      "name": "domains",
      "outputs": [
        {
          "internalType": "address",
          "name": "",
          "type": "address"
        }
      ],
      "stateMutability": "view",
      "type": "function"
    },
    {
      "inputs": [
        {
          "internalType": "string",
          "name": "name",
          "type": "string"
        }
      ],
      "name": "getAddress",
      "outputs": [
        {
          "internalType": "address",
          "name": "",
          "type": "address"
        }
      ],
      "stateMutability": "view",
      "type": "function"
    },
    {
      "inputs": [
        {
          "internalType": "uint256",
          "name": "tokenId",
          "type": "uint256"
        }
      ],
      "name": "getApproved",
      "outputs": [
        {
          "internalType": "address",
          "name": "",
          "type": "address"
        }
      ],
      "stateMutability": "view",
      "type": "function"
    },
    {
      "inputs": [
        {
          "internalType": "string",
          "name": "name",
          "type": "string"
        }
      ],
      "name": "getRecord",
      "outputs": [
        {
          "internalType": "string",
          "name": "",
          "type": "string"
        }
      ],
      "stateMutability": "view",
      "type": "function"
    },
    {
      "inputs": [
        {
          "internalType": "address",
          "name": "owner",
          "type": "address"
        },
        {
          "internalType": "address",
          "name": "operator",
          "type": "address"
        }
      ],
      "name": "isApprovedForAll",
      "outputs": [
        {
          "internalType": "bool",
          "name": "",
          "type": "bool"
        }
      ],
      "stateMutability": "view",
      "type": "function"
    },
    {
      "inputs": [],
      "name": "name",
      "outputs": [
        {
          "internalType": "string",
          "name": "",
          "type": "string"
        }
      ],
      "stateMutability": "view",
      "type": "function"
    },
    {
      "inputs": [],
      "name": "owner",
      "outputs": [
        {
          "internalType": "address",
          "name": "",
          "type": "address"
        }
      ],
      "stateMutability": "view",
      "type": "function"
    },
    {
      "inputs": [
        {
          "internalType": "uint256",
          "name": "tokenId",
          "type": "uint256"
        }
      ],
      "name": "ownerOf",
      "outputs": [
        {
          "internalType": "address",
          "name": "",
          "type": "address"
        }
      ],
      "stateMutability": "view",
      "type": "function"
    },
    {
      "inputs": [
        {
          "internalType": "string",
          "name": "name",
          "type": "string"
        }
      ],
      "name": "price",
      "outputs": [
        {
          "internalType": "uint256",
          "name": "",
          "type": "uint256"
        }
      ],
      "stateMutability": "pure",
      "type": "function"
    },
    {
      "inputs": [
        {
          "internalType": "string",
          "name": "",
          "type": "string"
        }
      ],
      "name": "records",
      "outputs": [
        {
          "internalType": "string",
          "name": "",
          "type": "string"
        }
      ],
      "stateMutability": "view",
      "type": "function"
    },
    {
      "inputs": [
        {
          "internalType": "string",
          "name": "name",
          "type": "string"
        }
      ],
      "name": "register",
      "outputs": [],
      "stateMutability": "payable",
      "type": "function"
    },
    {
      "inputs": [],
      "name": "renounceOwnership",
      "outputs": [],
      "stateMutability": "nonpayable",
      "type": "function"
    },
    {
      "inputs": [
        {
          "internalType": "address",
          "name": "from",
          "type": "address"
        },
        {
          "internalType": "address",
          "name": "to",
          "type": "address"
        },
        {
          "internalType": "uint256",
          "name": "tokenId",
          "type": "uint256"
        }
      ],
      "name": "safeTransferFrom",
      "outputs": [],
      "stateMutability": "nonpayable",
      "type": "function"
    },
    {
      "inputs": [
        {
          "internalType": "address",
          "name": "from",
          "type": "address"
        },
        {
          "internalType": "address",
          "name": "to",
          "type": "address"
        },
        {
          "internalType": "uint256",
          "name": "tokenId",
          "type": "uint256"
        },
        {
          "internalType": "bytes",
          "name": "data",
          "type": "bytes"
        }
      ],
      "name": "safeTransferFrom",
      "outputs": [],
      "stateMutability": "nonpayable",
      "type": "function"
    },
    {
      "inputs": [
        {
          "internalType": "address",
          "name": "operator",
          "type": "address"
        },
        {
          "internalType": "bool",
          "name": "approved",
          "type": "bool"
        }
      ],
      "name": "setApprovalForAll",
      "outputs": [],
      "stateMutability": "nonpayable",
      "type": "function"
    },
    {
      "inputs": [
        {
          "internalType": "string",
          "name": "name",
          "type": "string"
        },
        {
          "internalType": "string",
          "name": "record",
          "type": "string"
        }
      ],
      "name": "setRecord",
      "outputs": [],
      "stateMutability": "nonpayable",
      "type": "function"
    },
    {
      "inputs": [
        {
          "internalType": "bytes4",
          "name": "interfaceId",
          "type": "bytes4"
        }
      ],
      "name": "supportsInterface",
      "outputs": [
        {
          "internalType": "bool",
          "name": "",
          "type": "bool"
        }
      ],
      "stateMutability": "view",
      "type": "function"
    },
    {
      "inputs": [],
      "name": "symbol",
      "outputs": [
        {
          "internalType": "string",
          "name": "",
          "type": "string"
        }
      ],
      "stateMutability": "view",
      "type": "function"
    },
    {
      "inputs": [],
      "name": "tld",
      "outputs": [
        {
          "internalType": "string",
          "name": "",
          "type": "string"
        }
      ],
      "stateMutability": "view",
      "type": "function"
    },
    {
      "inputs": [
        {
          "internalType": "uint256",
          "name": "tokenId",
          "type": "uint256"
        }
      ],
      "name": "tokenURI",
      "outputs": [
        {
          "internalType": "string",
          "name": "",
          "type": "string"
        }
      ],
      "stateMutability": "view",
      "type": "function"
    },
    {
      "inputs": [
        {
          "internalType": "address",
          "name": "from",
          "type": "address"
        },
        {
          "internalType": "address",
          "name": "to",
          "type": "address"
        },
        {
          "internalType": "uint256",
          "name": "tokenId",
          "type": "uint256"
        }
      ],
      "name": "transferFrom",
      "outputs": [],
      "stateMutability": "nonpayable",
      "type": "function"
    },
    {
      "inputs": [
        {
          "internalType": "address",
          "name": "newOwner",
          "type": "address"
        }
      ],
      "name": "transferOwnership",
      "outputs": [],
      "stateMutability": "nonpayable",
      "type": "function"
    },
    {
      "inputs": [
        {
          "internalType": "address",
          "name": "_to",
          "type": "address"
        }
      ],
      "name": "withdraw",
      "outputs": [],
      "stateMutability": "nonpayable",
      "type": "function"
    }
  ],
  "bytecode": "0x6080604052604051806108a0016040528061086b8152602001620047a061086b9139600c9081620000319190620004b1565b506040518060400160405280600d81526020017f3c2f746578743e3c2f7376673e00000000000000000000000000000000000000815250600d9081620000789190620004b1565b506040516200500b3803806200500b83398181016040528101906200009e9190620006fc565b6040518060400160405280601381526020017f5369646f7578204e616d652053657276696365000000000000000000000000008152506040518060400160405280600381526020017f4e4e53000000000000000000000000000000000000000000000000000000000081525081600090816200011b9190620004b1565b5080600190816200012d9190620004b1565b50505062000150620001446200016960201b60201c565b6200017160201b60201c565b8060099081620001619190620004b1565b50506200074d565b600033905090565b6000600760009054906101000a900473ffffffffffffffffffffffffffffffffffffffff16905081600760006101000a81548173ffffffffffffffffffffffffffffffffffffffff021916908373ffffffffffffffffffffffffffffffffffffffff1602179055508173ffffffffffffffffffffffffffffffffffffffff168173ffffffffffffffffffffffffffffffffffffffff167f8be0079c531659141344cd1fd0a4f28419497f9722a3daafe3b4186f6b6457e060405160405180910390a35050565b600081519050919050565b7f4e487b7100000000000000000000000000000000000000000000000000000000600052604160045260246000fd5b7f4e487b7100000000000000000000000000000000000000000000000000000000600052602260045260246000fd5b60006002820490506001821680620002b957607f821691505b602082108103620002cf57620002ce62000271565b5b50919050565b60008190508160005260206000209050919050565b60006020601f8301049050919050565b600082821b905092915050565b600060088302620003397fffffffffffffffffffffffffffffffffffffffffffffffffffffffffffffffff82620002fa565b620003458683620002fa565b95508019841693508086168417925050509392505050565b6000819050919050565b6000819050919050565b6000620003926200038c62000386846200035d565b62000367565b6200035d565b9050919050565b6000819050919050565b620003ae8362000371565b620003c6620003bd8262000399565b84845462000307565b825550505050565b600090565b620003dd620003ce565b620003ea818484620003a3565b505050565b5b81811015620004125762000406600082620003d3565b600181019050620003f0565b5050565b601f82111562000461576200042b81620002d5565b6200043684620002ea565b8101602085101562000446578190505b6200045e6200045585620002ea565b830182620003ef565b50505b505050565b600082821c905092915050565b6000620004866000198460080262000466565b1980831691505092915050565b6000620004a1838362000473565b9150826002028217905092915050565b620004bc8262000237565b67ffffffffffffffff811115620004d857620004d762000242565b5b620004e48254620002a0565b620004f182828562000416565b600060209050601f83116001811462000529576000841562000514578287015190505b62000520858262000493565b86555062000590565b601f1984166200053986620002d5565b60005b8281101562000563578489015182556001820191506020850194506020810190506200053c565b868310156200058357848901516200057f601f89168262000473565b8355505b6001600288020188555050505b505050505050565b6000604051905090565b600080fd5b600080fd5b600080fd5b600080fd5b6000601f19601f8301169050919050565b620005d282620005b6565b810181811067ffffffffffffffff82111715620005f457620005f362000242565b5b80604052505050565b60006200060962000598565b9050620006178282620005c7565b919050565b600067ffffffffffffffff8211156200063a576200063962000242565b5b6200064582620005b6565b9050602081019050919050565b60005b838110156200067257808201518184015260208101905062000655565b60008484015250505050565b6000620006956200068f846200061c565b620005fd565b905082815260208101848484011115620006b457620006b3620005b1565b5b620006c184828562000652565b509392505050565b600082601f830112620006e157620006e0620005ac565b5b8151620006f38482602086016200067e565b91505092915050565b600060208284031215620007155762000714620005a2565b5b600082015167ffffffffffffffff811115620007365762000735620005a7565b5b6200074484828501620006c9565b91505092915050565b614043806200075d6000396000f3fe6080604052600436106101665760003560e01c806370a08231116100d1578063bf40fac11161008a578063e985e9c511610064578063e985e9c514610572578063f2c298be146105af578063f2fde38b146105cb578063fe2c6198146105f457610166565b8063bf40fac1146104cf578063c1880a981461050c578063c87b56dd1461053557610166565b806370a08231146103d3578063715018a6146104105780638da5cb5b1461042757806395d89b4114610452578063a22cb4651461047d578063b88d4fde146104a657610166565b80632644923511610123578063264492351461029f5780632d551432146102dc57806342842e0e1461030757806351cff8d914610330578063541e771d146103595780636352211e1461039657610166565b806301ffc9a71461016b57806306fdde03146101a8578063081812fc146101d3578063095ea7b31461021057806311dd88451461023957806323b872dd14610276575b600080fd5b34801561017757600080fd5b50610192600480360381019061018d91906126b5565b610631565b60405161019f91906126fd565b60405180910390f35b3480156101b457600080fd5b506101bd610713565b6040516101ca91906127a8565b60405180910390f35b3480156101df57600080fd5b506101fa60048036038101906101f59190612800565b6107a5565b604051610207919061286e565b60405180910390f35b34801561021c57600080fd5b50610237600480360381019061023291906128b5565b6107eb565b005b34801561024557600080fd5b50610260600480360381019061025b919061295a565b610902565b60405161026d91906127a8565b60405180910390f35b34801561028257600080fd5b5061029d600480360381019061029891906129a7565b6109b5565b005b3480156102ab57600080fd5b506102c660048036038101906102c19190612b2a565b610a15565b6040516102d3919061286e565b60405180910390f35b3480156102e857600080fd5b506102f1610a5e565b6040516102fe91906127a8565b60405180910390f35b34801561031357600080fd5b5061032e600480360381019061032991906129a7565b610aec565b005b34801561033c57600080fd5b5061035760048036038101906103529190612b73565b610b0c565b005b34801561036557600080fd5b50610380600480360381019061037b9190612b2a565b610b5e565b60405161038d91906127a8565b60405180910390f35b3480156103a257600080fd5b506103bd60048036038101906103b89190612800565b610c14565b6040516103ca919061286e565b60405180910390f35b3480156103df57600080fd5b506103fa60048036038101906103f59190612b73565b610c9a565b6040516104079190612baf565b60405180910390f35b34801561041c57600080fd5b50610425610d51565b005b34801561043357600080fd5b5061043c610d65565b604051610449919061286e565b60405180910390f35b34801561045e57600080fd5b50610467610d8f565b60405161047491906127a8565b60405180910390f35b34801561048957600080fd5b506104a4600480360381019061049f9190612bf6565b610e21565b005b3480156104b257600080fd5b506104cd60048036038101906104c89190612cd7565b610e37565b005b3480156104db57600080fd5b506104f660048036038101906104f1919061295a565b610e99565b604051610503919061286e565b60405180910390f35b34801561051857600080fd5b50610533600480360381019061052e9190612d5a565b610ee4565b005b34801561054157600080fd5b5061055c60048036038101906105579190612800565b610fc8565b60405161056991906127a8565b60405180910390f35b34801561057e57600080fd5b5061059960048036038101906105949190612ddb565b6110da565b6040516105a691906126fd565b60405180910390f35b6105c960048036038101906105c4919061295a565b61116e565b005b3480156105d757600080fd5b506105f260048036038101906105ed9190612b73565b6113cf565b005b34801561060057600080fd5b5061061b6004803603810190610616919061295a565b611452565b6040516106289190612baf565b60405180910390f35b60007f80ac58cd000000000000000000000000000000000000000000000000000000007bffffffffffffffffffffffffffffffffffffffffffffffffffffffff1916827bffffffffffffffffffffffffffffffffffffffffffffffffffffffff191614806106fc57507f5b5e139f000000000000000000000000000000000000000000000000000000007bffffffffffffffffffffffffffffffffffffffffffffffffffffffff1916827bffffffffffffffffffffffffffffffffffffffffffffffffffffffff1916145b8061070c575061070b826114db565b5b9050919050565b60606000805461072290612e4a565b80601f016020809104026020016040519081016040528092919081815260200182805461074e90612e4a565b801561079b5780601f106107705761010080835404028352916020019161079b565b820191906000526020600020905b81548152906001019060200180831161077e57829003601f168201915b5050505050905090565b60006107b082611545565b6004600083815260200190815260200160002060009054906101000a900473ffffffffffffffffffffffffffffffffffffffff169050919050565b60006107f682610c14565b90508073ffffffffffffffffffffffffffffffffffffffff168373ffffffffffffffffffffffffffffffffffffffff1603610866576040517f08c379a000000000000000000000000000000000000000000000000000000000815260040161085d90612eed565b60405180910390fd5b8073ffffffffffffffffffffffffffffffffffffffff16610885611590565b73ffffffffffffffffffffffffffffffffffffffff1614806108b457506108b3816108ae611590565b6110da565b5b6108f3576040517f08c379a00000000000000000000000000000000000000000000000000000000081526004016108ea90612f7f565b60405180910390fd5b6108fd8383611598565b505050565b6060600b8383604051610916929190612fcf565b9081526020016040518091039020805461092f90612e4a565b80601f016020809104026020016040519081016040528092919081815260200182805461095b90612e4a565b80156109a85780601f1061097d576101008083540402835291602001916109a8565b820191906000526020600020905b81548152906001019060200180831161098b57829003601f168201915b5050505050905092915050565b6109c66109c0611590565b82611651565b610a05576040517f08c379a00000000000000000000000000000000000000000000000000000000081526004016109fc9061305a565b60405180910390fd5b610a108383836116e6565b505050565b600a818051602081018201805184825260208301602085012081835280955050505050506000915054906101000a900473ffffffffffffffffffffffffffffffffffffffff1681565b60098054610a6b90612e4a565b80601f0160208091040260200160405190810160405280929190818152602001828054610a9790612e4a565b8015610ae45780601f10610ab957610100808354040283529160200191610ae4565b820191906000526020600020905b815481529060010190602001808311610ac757829003601f168201915b505050505081565b610b0783838360405180602001604052806000815250610e37565b505050565b610b146119df565b8073ffffffffffffffffffffffffffffffffffffffff166108fc479081150290604051600060405180830381858888f19350505050158015610b5a573d6000803e3d6000fd5b5050565b600b818051602081018201805184825260208301602085012081835280955050505050506000915090508054610b9390612e4a565b80601f0160208091040260200160405190810160405280929190818152602001828054610bbf90612e4a565b8015610c0c5780601f10610be157610100808354040283529160200191610c0c565b820191906000526020600020905b815481529060010190602001808311610bef57829003601f168201915b505050505081565b600080610c2083611a5d565b9050600073ffffffffffffffffffffffffffffffffffffffff168173ffffffffffffffffffffffffffffffffffffffff1603610c91576040517f08c379a0000000000000000000000000000000000000000000000000000000008152600401610c88906130c6565b60405180910390fd5b80915050919050565b60008073ffffffffffffffffffffffffffffffffffffffff168273ffffffffffffffffffffffffffffffffffffffff1603610d0a576040517f08c379a0000000000000000000000000000000000000000000000000000000008152600401610d0190613158565b60405180910390fd5b600360008373ffffffffffffffffffffffffffffffffffffffff1673ffffffffffffffffffffffffffffffffffffffff168152602001908152602001600020549050919050565b610d596119df565b610d636000611a9a565b565b6000600760009054906101000a900473ffffffffffffffffffffffffffffffffffffffff16905090565b606060018054610d9e90612e4a565b80601f0160208091040260200160405190810160405280929190818152602001828054610dca90612e4a565b8015610e175780601f10610dec57610100808354040283529160200191610e17565b820191906000526020600020905b815481529060010190602001808311610dfa57829003601f168201915b5050505050905090565b610e33610e2c611590565b8383611b60565b5050565b610e48610e42611590565b83611651565b610e87576040517f08c379a0000000000000000000000000000000000000000000000000000000008152600401610e7e9061305a565b60405180910390fd5b610e9384848484611ccc565b50505050565b6000600a8383604051610ead929190612fcf565b908152602001604051809103902060009054906101000a900473ffffffffffffffffffffffffffffffffffffffff16905092915050565b3373ffffffffffffffffffffffffffffffffffffffff16600a8585604051610f0d929190612fcf565b908152602001604051809103902060009054906101000a900473ffffffffffffffffffffffffffffffffffffffff1673ffffffffffffffffffffffffffffffffffffffff1614610f92576040517f08c379a0000000000000000000000000000000000000000000000000000000008152600401610f89906131c4565b60405180910390fd5b8181600b8686604051610fa6929190612fcf565b90815260200160405180910390209182610fc192919061339b565b5050505050565b6060610fd382611545565b6000600660008481526020019081526020016000208054610ff390612e4a565b80601f016020809104026020016040519081016040528092919081815260200182805461101f90612e4a565b801561106c5780601f106110415761010080835404028352916020019161106c565b820191906000526020600020905b81548152906001019060200180831161104f57829003601f168201915b50505050509050600061107d611d28565b905060008151036110925781925050506110d5565b6000825111156110c75780826040516020016110af92919061349c565b604051602081830303815290604052925050506110d5565b6110d084611d3f565b925050505b919050565b6000600560008473ffffffffffffffffffffffffffffffffffffffff1673ffffffffffffffffffffffffffffffffffffffff16815260200190815260200160002060008373ffffffffffffffffffffffffffffffffffffffff1673ffffffffffffffffffffffffffffffffffffffff16815260200190815260200160002060009054906101000a900460ff16905092915050565b600073ffffffffffffffffffffffffffffffffffffffff16600a8383604051611198929190612fcf565b908152602001604051809103902060009054906101000a900473ffffffffffffffffffffffffffffffffffffffff1673ffffffffffffffffffffffffffffffffffffffff16146112215781816040517f7772f7070000000000000000000000000000000000000000000000000000000081526004016112189291906134ed565b60405180910390fd5b600061122d8383611452565b90508034101561127457806040517f53e1b5ec00000000000000000000000000000000000000000000000000000000815260040161126b9190612baf565b60405180910390fd5b60008383600960405160200161128c939291906135e0565b60405160208183030381529060405290506000600c82600d6040516020016112b693929190613611565b604051602081830303815290604052905060006112d36008611da7565b9050600086869050905060006112e882611db5565b90506000611320866112f987611e83565b8460405160200161130c939291906137be565b604051602081830303815290604052611e83565b90506000816040516020016113359190613867565b60405160208183030381529060405290506113503386611fe6565b61135a8582612004565b33600a8b8b60405161136d929190612fcf565b908152602001604051809103902060006101000a81548173ffffffffffffffffffffffffffffffffffffffff021916908373ffffffffffffffffffffffffffffffffffffffff1602179055506113c36008612071565b50505050505050505050565b6113d76119df565b600073ffffffffffffffffffffffffffffffffffffffff168173ffffffffffffffffffffffffffffffffffffffff1603611446576040517f08c379a000000000000000000000000000000000000000000000000000000000815260040161143d906138fb565b60405180910390fd5b61144f81611a9a565b50565b6000808383905090506000811015611496576040517fb42a8bfb00000000000000000000000000000000000000000000000000000000815260040160405180910390fd5b600381036114af576706f05b59d3b200009150506114d5565b600481036114c857670429d069189e00009150506114d5565b67016345785d8a00009150505b92915050565b60007f01ffc9a7000000000000000000000000000000000000000000000000000000007bffffffffffffffffffffffffffffffffffffffffffffffffffffffff1916827bffffffffffffffffffffffffffffffffffffffffffffffffffffffff1916149050919050565b61154e81612087565b61158d576040517f08c379a0000000000000000000000000000000000000000000000000000000008152600401611584906130c6565b60405180910390fd5b50565b600033905090565b816004600083815260200190815260200160002060006101000a81548173ffffffffffffffffffffffffffffffffffffffff021916908373ffffffffffffffffffffffffffffffffffffffff160217905550808273ffffffffffffffffffffffffffffffffffffffff1661160b83610c14565b73ffffffffffffffffffffffffffffffffffffffff167f8c5be1e5ebec7d5bd14f71427d1e84f3dd0314c0f7b2291e5b200ac8c7c3b92560405160405180910390a45050565b60008061165d83610c14565b90508073ffffffffffffffffffffffffffffffffffffffff168473ffffffffffffffffffffffffffffffffffffffff16148061169f575061169e81856110da565b5b806116dd57508373ffffffffffffffffffffffffffffffffffffffff166116c5846107a5565b73ffffffffffffffffffffffffffffffffffffffff16145b91505092915050565b8273ffffffffffffffffffffffffffffffffffffffff1661170682610c14565b73ffffffffffffffffffffffffffffffffffffffff161461175c576040517f08c379a00000000000000000000000000000000000000000000000000000000081526004016117539061398d565b60405180910390fd5b600073ffffffffffffffffffffffffffffffffffffffff168273ffffffffffffffffffffffffffffffffffffffff16036117cb576040517f08c379a00000000000000000000000000000000000000000000000000000000081526004016117c290613a1f565b60405180910390fd5b6117d883838360016120c8565b8273ffffffffffffffffffffffffffffffffffffffff166117f882610c14565b73ffffffffffffffffffffffffffffffffffffffff161461184e576040517f08c379a00000000000000000000000000000000000000000000000000000000081526004016118459061398d565b60405180910390fd5b6004600082815260200190815260200160002060006101000a81549073ffffffffffffffffffffffffffffffffffffffff02191690556001600360008573ffffffffffffffffffffffffffffffffffffffff1673ffffffffffffffffffffffffffffffffffffffff168152602001908152602001600020600082825403925050819055506001600360008473ffffffffffffffffffffffffffffffffffffffff1673ffffffffffffffffffffffffffffffffffffffff16815260200190815260200160002060008282540192505081905550816002600083815260200190815260200160002060006101000a81548173ffffffffffffffffffffffffffffffffffffffff021916908373ffffffffffffffffffffffffffffffffffffffff160217905550808273ffffffffffffffffffffffffffffffffffffffff168473ffffffffffffffffffffffffffffffffffffffff167fddf252ad1be2c89b69c2b068fc378daa952ba7f163c4a11628f55a4df523b3ef60405160405180910390a46119da83838360016120ce565b505050565b6119e7611590565b73ffffffffffffffffffffffffffffffffffffffff16611a05610d65565b73ffffffffffffffffffffffffffffffffffffffff1614611a5b576040517f08c379a0000000000000000000000000000000000000000000000000000000008152600401611a5290613a8b565b60405180910390fd5b565b60006002600083815260200190815260200160002060009054906101000a900473ffffffffffffffffffffffffffffffffffffffff169050919050565b6000600760009054906101000a900473ffffffffffffffffffffffffffffffffffffffff16905081600760006101000a81548173ffffffffffffffffffffffffffffffffffffffff021916908373ffffffffffffffffffffffffffffffffffffffff1602179055508173ffffffffffffffffffffffffffffffffffffffff168173ffffffffffffffffffffffffffffffffffffffff167f8be0079c531659141344cd1fd0a4f28419497f9722a3daafe3b4186f6b6457e060405160405180910390a35050565b8173ffffffffffffffffffffffffffffffffffffffff168373ffffffffffffffffffffffffffffffffffffffff1603611bce576040517f08c379a0000000000000000000000000000000000000000000000000000000008152600401611bc590613af7565b60405180910390fd5b80600560008573ffffffffffffffffffffffffffffffffffffffff1673ffffffffffffffffffffffffffffffffffffffff16815260200190815260200160002060008473ffffffffffffffffffffffffffffffffffffffff1673ffffffffffffffffffffffffffffffffffffffff16815260200190815260200160002060006101000a81548160ff0219169083151502179055508173ffffffffffffffffffffffffffffffffffffffff168373ffffffffffffffffffffffffffffffffffffffff167f17307eab39ab6107e8899845ad3d59bd9653f200f220920489ca2b5937696c3183604051611cbf91906126fd565b60405180910390a3505050565b611cd78484846116e6565b611ce3848484846120d4565b611d22576040517f08c379a0000000000000000000000000000000000000000000000000000000008152600401611d1990613b89565b60405180910390fd5b50505050565b606060405180602001604052806000815250905090565b6060611d4a82611545565b6000611d54611d28565b90506000815111611d745760405180602001604052806000815250611d9f565b80611d7e84611db5565b604051602001611d8f92919061349c565b6040516020818303038152906040525b915050919050565b600081600001549050919050565b606060006001611dc48461225b565b01905060008167ffffffffffffffff811115611de357611de26129ff565b5b6040519080825280601f01601f191660200182016040528015611e155781602001600182028036833780820191505090505b509050600082602001820190505b600115611e78578080600190039150507f3031323334353637383961626364656600000000000000000000000000000000600a86061a8153600a8581611e6c57611e6b613ba9565b5b04945060008503611e23575b819350505050919050565b60606000825103611ea557604051806020016040528060008152509050611fe1565b6000604051806060016040528060408152602001613fce6040913990506000600360028551611ed49190613c07565b611ede9190613c3b565b6004611eea9190613c6c565b67ffffffffffffffff811115611f0357611f026129ff565b5b6040519080825280601f01601f191660200182016040528015611f355781602001600182028036833780820191505090505b509050600182016020820185865187015b80821015611fa1576003820191508151603f8160121c168501518453600184019350603f81600c1c168501518453600184019350603f8160061c168501518453600184019350603f8116850151845360018401935050611f46565b5050600386510660018114611fbd5760028114611fd057611fd8565b603d6001830353603d6002830353611fd8565b603d60018303535b50505080925050505b919050565b6120008282604051806020016040528060008152506123ae565b5050565b61200d82612087565b61204c576040517f08c379a000000000000000000000000000000000000000000000000000000000815260040161204390613d20565b60405180910390fd5b8060066000848152602001908152602001600020908161206c9190613d40565b505050565b6001816000016000828254019250508190555050565b60008073ffffffffffffffffffffffffffffffffffffffff166120a983611a5d565b73ffffffffffffffffffffffffffffffffffffffff1614159050919050565b50505050565b50505050565b60006120f58473ffffffffffffffffffffffffffffffffffffffff16612409565b1561224e578373ffffffffffffffffffffffffffffffffffffffff1663150b7a0261211e611590565b8786866040518563ffffffff1660e01b81526004016121409493929190613e67565b6020604051808303816000875af192505050801561217c57506040513d601f19601f820116820180604052508101906121799190613ec8565b60015b6121fe573d80600081146121ac576040519150601f19603f3d011682016040523d82523d6000602084013e6121b1565b606091505b5060008151036121f6576040517f08c379a00000000000000000000000000000000000000000000000000000000081526004016121ed90613b89565b60405180910390fd5b805181602001fd5b63150b7a0260e01b7bffffffffffffffffffffffffffffffffffffffffffffffffffffffff1916817bffffffffffffffffffffffffffffffffffffffffffffffffffffffff191614915050612253565b600190505b949350505050565b600080600090507a184f03e93ff9f4daa797ed6e38ed64bf6a1f01000000000000000083106122b9577a184f03e93ff9f4daa797ed6e38ed64bf6a1f01000000000000000083816122af576122ae613ba9565b5b0492506040810190505b6d04ee2d6d415b85acef810000000083106122f6576d04ee2d6d415b85acef810000000083816122ec576122eb613ba9565b5b0492506020810190505b662386f26fc10000831061232557662386f26fc10000838161231b5761231a613ba9565b5b0492506010810190505b6305f5e100831061234e576305f5e100838161234457612343613ba9565b5b0492506008810190505b612710831061237357612710838161236957612368613ba9565b5b0492506004810190505b60648310612396576064838161238c5761238b613ba9565b5b0492506002810190505b600a83106123a5576001810190505b80915050919050565b6123b8838361242c565b6123c560008484846120d4565b612404576040517f08c379a00000000000000000000000000000000000000000000000000000000081526004016123fb90613b89565b60405180910390fd5b505050565b6000808273ffffffffffffffffffffffffffffffffffffffff163b119050919050565b600073ffffffffffffffffffffffffffffffffffffffff168273ffffffffffffffffffffffffffffffffffffffff160361249b576040517f08c379a000000000000000000000000000000000000000000000000000000000815260040161249290613f41565b60405180910390fd5b6124a481612087565b156124e4576040517f08c379a00000000000000000000000000000000000000000000000000000000081526004016124db90613fad565b60405180910390fd5b6124f26000838360016120c8565b6124fb81612087565b1561253b576040517f08c379a000000000000000000000000000000000000000000000000000000000815260040161253290613fad565b60405180910390fd5b6001600360008473ffffffffffffffffffffffffffffffffffffffff1673ffffffffffffffffffffffffffffffffffffffff16815260200190815260200160002060008282540192505081905550816002600083815260200190815260200160002060006101000a81548173ffffffffffffffffffffffffffffffffffffffff021916908373ffffffffffffffffffffffffffffffffffffffff160217905550808273ffffffffffffffffffffffffffffffffffffffff16600073ffffffffffffffffffffffffffffffffffffffff167fddf252ad1be2c89b69c2b068fc378daa952ba7f163c4a11628f55a4df523b3ef60405160405180910390a46126456000838360016120ce565b5050565b6000604051905090565b600080fd5b600080fd5b60007fffffffff0000000000000000000000000000000000000000000000000000000082169050919050565b6126928161265d565b811461269d57600080fd5b50565b6000813590506126af81612689565b92915050565b6000602082840312156126cb576126ca612653565b5b60006126d9848285016126a0565b91505092915050565b60008115159050919050565b6126f7816126e2565b82525050565b600060208201905061271260008301846126ee565b92915050565b600081519050919050565b600082825260208201905092915050565b60005b83811015612752578082015181840152602081019050612737565b60008484015250505050565b6000601f19601f8301169050919050565b600061277a82612718565b6127848185612723565b9350612794818560208601612734565b61279d8161275e565b840191505092915050565b600060208201905081810360008301526127c2818461276f565b905092915050565b6000819050919050565b6127dd816127ca565b81146127e857600080fd5b50565b6000813590506127fa816127d4565b92915050565b60006020828403121561281657612815612653565b5b6000612824848285016127eb565b91505092915050565b600073ffffffffffffffffffffffffffffffffffffffff82169050919050565b60006128588261282d565b9050919050565b6128688161284d565b82525050565b6000602082019050612883600083018461285f565b92915050565b6128928161284d565b811461289d57600080fd5b50565b6000813590506128af81612889565b92915050565b600080604083850312156128cc576128cb612653565b5b60006128da858286016128a0565b92505060206128eb858286016127eb565b9150509250929050565b600080fd5b600080fd5b600080fd5b60008083601f84011261291a576129196128f5565b5b8235905067ffffffffffffffff811115612937576129366128fa565b5b602083019150836001820283011115612953576129526128ff565b5b9250929050565b6000806020838503121561297157612970612653565b5b600083013567ffffffffffffffff81111561298f5761298e612658565b5b61299b85828601612904565b92509250509250929050565b6000806000606084860312156129c0576129bf612653565b5b60006129ce868287016128a0565b93505060206129df868287016128a0565b92505060406129f0868287016127eb565b9150509250925092565b600080fd5b7f4e487b7100000000000000000000000000000000000000000000000000000000600052604160045260246000fd5b612a378261275e565b810181811067ffffffffffffffff82111715612a5657612a556129ff565b5b80604052505050565b6000612a69612649565b9050612a758282612a2e565b919050565b600067ffffffffffffffff821115612a9557612a946129ff565b5b612a9e8261275e565b9050602081019050919050565b82818337600083830152505050565b6000612acd612ac884612a7a565b612a5f565b905082815260208101848484011115612ae957612ae86129fa565b5b612af4848285612aab565b509392505050565b600082601f830112612b1157612b106128f5565b5b8135612b21848260208601612aba565b91505092915050565b600060208284031215612b4057612b3f612653565b5b600082013567ffffffffffffffff811115612b5e57612b5d612658565b5b612b6a84828501612afc565b91505092915050565b600060208284031215612b8957612b88612653565b5b6000612b97848285016128a0565b91505092915050565b612ba9816127ca565b82525050565b6000602082019050612bc46000830184612ba0565b92915050565b612bd3816126e2565b8114612bde57600080fd5b50565b600081359050612bf081612bca565b92915050565b60008060408385031215612c0d57612c0c612653565b5b6000612c1b858286016128a0565b9250506020612c2c85828601612be1565b9150509250929050565b600067ffffffffffffffff821115612c5157612c506129ff565b5b612c5a8261275e565b9050602081019050919050565b6000612c7a612c7584612c36565b612a5f565b905082815260208101848484011115612c9657612c956129fa565b5b612ca1848285612aab565b509392505050565b600082601f830112612cbe57612cbd6128f5565b5b8135612cce848260208601612c67565b91505092915050565b60008060008060808587031215612cf157612cf0612653565b5b6000612cff878288016128a0565b9450506020612d10878288016128a0565b9350506040612d21878288016127eb565b925050606085013567ffffffffffffffff811115612d4257612d41612658565b5b612d4e87828801612ca9565b91505092959194509250565b60008060008060408587031215612d7457612d73612653565b5b600085013567ffffffffffffffff811115612d9257612d91612658565b5b612d9e87828801612904565b9450945050602085013567ffffffffffffffff811115612dc157612dc0612658565b5b612dcd87828801612904565b925092505092959194509250565b60008060408385031215612df257612df1612653565b5b6000612e00858286016128a0565b9250506020612e11858286016128a0565b9150509250929050565b7f4e487b7100000000000000000000000000000000000000000000000000000000600052602260045260246000fd5b60006002820490506001821680612e6257607f821691505b602082108103612e7557612e74612e1b565b5b50919050565b7f4552433732313a20617070726f76616c20746f2063757272656e74206f776e6560008201527f7200000000000000000000000000000000000000000000000000000000000000602082015250565b6000612ed7602183612723565b9150612ee282612e7b565b604082019050919050565b60006020820190508181036000830152612f0681612eca565b9050919050565b7f4552433732313a20617070726f76652063616c6c6572206973206e6f7420746f60008201527f6b656e206f776e6572206f7220617070726f76656420666f7220616c6c000000602082015250565b6000612f69603d83612723565b9150612f7482612f0d565b604082019050919050565b60006020820190508181036000830152612f9881612f5c565b9050919050565b600081905092915050565b6000612fb68385612f9f565b9350612fc3838584612aab565b82840190509392505050565b6000612fdc828486612faa565b91508190509392505050565b7f4552433732313a2063616c6c6572206973206e6f7420746f6b656e206f776e6560008201527f72206f7220617070726f76656400000000000000000000000000000000000000602082015250565b6000613044602d83612723565b915061304f82612fe8565b604082019050919050565b6000602082019050818103600083015261307381613037565b9050919050565b7f4552433732313a20696e76616c696420746f6b656e2049440000000000000000600082015250565b60006130b0601883612723565b91506130bb8261307a565b602082019050919050565b600060208201905081810360008301526130df816130a3565b9050919050565b7f4552433732313a2061646472657373207a65726f206973206e6f74206120766160008201527f6c6964206f776e65720000000000000000000000000000000000000000000000602082015250565b6000613142602983612723565b915061314d826130e6565b604082019050919050565b6000602082019050818103600083015261317181613135565b9050919050565b7f596f7520617265206e6f7420746865206f776e65720000000000000000000000600082015250565b60006131ae601583612723565b91506131b982613178565b602082019050919050565b600060208201905081810360008301526131dd816131a1565b9050919050565b600082905092915050565b60008190508160005260206000209050919050565b60006020601f8301049050919050565b600082821b905092915050565b6000600883026132517fffffffffffffffffffffffffffffffffffffffffffffffffffffffffffffffff82613214565b61325b8683613214565b95508019841693508086168417925050509392505050565b6000819050919050565b600061329861329361328e846127ca565b613273565b6127ca565b9050919050565b6000819050919050565b6132b28361327d565b6132c66132be8261329f565b848454613221565b825550505050565b600090565b6132db6132ce565b6132e68184846132a9565b505050565b5b8181101561330a576132ff6000826132d3565b6001810190506132ec565b5050565b601f82111561334f57613320816131ef565b61332984613204565b81016020851015613338578190505b61334c61334485613204565b8301826132eb565b50505b505050565b600082821c905092915050565b600061337260001984600802613354565b1980831691505092915050565b600061338b8383613361565b9150826002028217905092915050565b6133a583836131e4565b67ffffffffffffffff8111156133be576133bd6129ff565b5b6133c88254612e4a565b6133d382828561330e565b6000601f83116001811461340257600084156133f0578287013590505b6133fa858261337f565b865550613462565b601f198416613410866131ef565b60005b8281101561343857848901358255600182019150602085019450602081019050613413565b868310156134555784890135613451601f891682613361565b8355505b6001600288020188555050505b50505050505050565b600061347682612718565b6134808185612f9f565b9350613490818560208601612734565b80840191505092915050565b60006134a8828561346b565b91506134b4828461346b565b91508190509392505050565b60006134cc8385612723565b93506134d9838584612aab565b6134e28361275e565b840190509392505050565b600060208201905081810360008301526135088184866134c0565b90509392505050565b7f2e00000000000000000000000000000000000000000000000000000000000000600082015250565b6000613547600183612f9f565b915061355282613511565b600182019050919050565b6000815461356a81612e4a565b6135748186612f9f565b9450600182166000811461358f57600181146135a4576135d7565b60ff19831686528115158202860193506135d7565b6135ad856131ef565b60005b838110156135cf578154818901526001820191506020810190506135b0565b838801955050505b50505092915050565b60006135ed828587612faa565b91506135f88261353a565b9150613604828461355d565b9150819050949350505050565b600061361d828661355d565b9150613629828561346b565b9150613635828461355d565b9150819050949350505050565b7f7b226e616d65223a202200000000000000000000000000000000000000000000600082015250565b6000613678600a83612f9f565b915061368382613642565b600a82019050919050565b7f222c20226465736372697074696f6e223a20224120646f6d61696e206f6e207460008201527f68652046756e6b206e616d652073657276696365222c2022696d616765223a2060208201527f22646174613a696d6167652f7376672b786d6c3b6261736536342c0000000000604082015250565b6000613710605b83612f9f565b915061371b8261368e565b605b82019050919050565b7f222c20226c656e677468223a2022000000000000000000000000000000000000600082015250565b600061375c600e83612f9f565b915061376782613726565b600e82019050919050565b7f227d000000000000000000000000000000000000000000000000000000000000600082015250565b60006137a8600283612f9f565b91506137b382613772565b600282019050919050565b60006137c98261366b565b91506137d5828661346b565b91506137e082613703565b91506137ec828561346b565b91506137f78261374f565b9150613803828461346b565b915061380e8261379b565b9150819050949350505050565b7f646174613a6170706c69636174696f6e2f6a736f6e3b6261736536342c000000600082015250565b6000613851601d83612f9f565b915061385c8261381b565b601d82019050919050565b600061387282613844565b915061387e828461346b565b915081905092915050565b7f4f776e61626c653a206e6577206f776e657220697320746865207a65726f206160008201527f6464726573730000000000000000000000000000000000000000000000000000602082015250565b60006138e5602683612723565b91506138f082613889565b604082019050919050565b60006020820190508181036000830152613914816138d8565b9050919050565b7f4552433732313a207472616e736665722066726f6d20696e636f72726563742060008201527f6f776e6572000000000000000000000000000000000000000000000000000000602082015250565b6000613977602583612723565b91506139828261391b565b604082019050919050565b600060208201905081810360008301526139a68161396a565b9050919050565b7f4552433732313a207472616e7366657220746f20746865207a65726f2061646460008201527f7265737300000000000000000000000000000000000000000000000000000000602082015250565b6000613a09602483612723565b9150613a14826139ad565b604082019050919050565b60006020820190508181036000830152613a38816139fc565b9050919050565b7f4f776e61626c653a2063616c6c6572206973206e6f7420746865206f776e6572600082015250565b6000613a75602083612723565b9150613a8082613a3f565b602082019050919050565b60006020820190508181036000830152613aa481613a68565b9050919050565b7f4552433732313a20617070726f766520746f2063616c6c657200000000000000600082015250565b6000613ae1601983612723565b9150613aec82613aab565b602082019050919050565b60006020820190508181036000830152613b1081613ad4565b9050919050565b7f4552433732313a207472616e7366657220746f206e6f6e20455243373231526560008201527f63656976657220696d706c656d656e7465720000000000000000000000000000602082015250565b6000613b73603283612723565b9150613b7e82613b17565b604082019050919050565b60006020820190508181036000830152613ba281613b66565b9050919050565b7f4e487b7100000000000000000000000000000000000000000000000000000000600052601260045260246000fd5b7f4e487b7100000000000000000000000000000000000000000000000000000000600052601160045260246000fd5b6000613c12826127ca565b9150613c1d836127ca565b9250828201905080821115613c3557613c34613bd8565b5b92915050565b6000613c46826127ca565b9150613c51836127ca565b925082613c6157613c60613ba9565b5b828204905092915050565b6000613c77826127ca565b9150613c82836127ca565b9250828202613c90816127ca565b91508282048414831517613ca757613ca6613bd8565b5b5092915050565b7f45524337323155524953746f726167653a2055524920736574206f66206e6f6e60008201527f6578697374656e7420746f6b656e000000000000000000000000000000000000602082015250565b6000613d0a602e83612723565b9150613d1582613cae565b604082019050919050565b60006020820190508181036000830152613d3981613cfd565b9050919050565b613d4982612718565b67ffffffffffffffff811115613d6257613d616129ff565b5b613d6c8254612e4a565b613d7782828561330e565b600060209050601f831160018114613daa5760008415613d98578287015190505b613da2858261337f565b865550613e0a565b601f198416613db8866131ef565b60005b82811015613de057848901518255600182019150602085019450602081019050613dbb565b86831015613dfd5784890151613df9601f891682613361565b8355505b6001600288020188555050505b505050505050565b600081519050919050565b600082825260208201905092915050565b6000613e3982613e12565b613e438185613e1d565b9350613e53818560208601612734565b613e5c8161275e565b840191505092915050565b6000608082019050613e7c600083018761285f565b613e89602083018661285f565b613e966040830185612ba0565b8181036060830152613ea88184613e2e565b905095945050505050565b600081519050613ec281612689565b92915050565b600060208284031215613ede57613edd612653565b5b6000613eec84828501613eb3565b91505092915050565b7f4552433732313a206d696e7420746f20746865207a65726f2061646472657373600082015250565b6000613f2b602083612723565b9150613f3682613ef5565b602082019050919050565b60006020820190508181036000830152613f5a81613f1e565b9050919050565b7f4552433732313a20746f6b656e20616c7265616479206d696e74656400000000600082015250565b6000613f97601c83612723565b9150613fa282613f61565b602082019050919050565b60006020820190508181036000830152613fc681613f8a565b905091905056fe4142434445464748494a4b4c4d4e4f505152535455565758595a6162636465666768696a6b6c6d6e6f707172737475767778797a303132333435363738392b2fa264697066735822122054691083952d82d94f9f24710352a02fbb0a6f0898bd6d6543ccb03d9b76a41664736f6c634300081200333c73766720786d6c6e733d22687474703a2f2f7777772e77332e6f72672f323030302f737667222077696474683d2232373022206865696768743d22323730222066696c6c3d226e6f6e65223e3c706174682066696c6c3d2275726c282342292220643d224d302030683237307632373048307a222f3e3c646566733e3c66696c7465722069643d22412220636f6c6f722d696e746572706f6c6174696f6e2d66696c746572733d2273524742222066696c746572556e6974733d227573657253706163654f6e55736522206865696768743d22323730222077696474683d22323730223e3c666544726f70536861646f772064783d2230222064793d22312220737464446576696174696f6e3d22322220666c6f6f642d6f7061636974793d222e323235222077696474683d223230302522206865696768743d2232303025222f3e3c2f66696c7465723e3c2f646566733e3c7061746820643d224d37322e3836332034322e393439632d2e3636382d2e3338372d312e3432362d2e35392d322e3139372d2e3539732d312e3532392e3230342d322e3139372e35396c2d31302e30383120362e3033322d362e383520332e3933342d31302e30383120362e303332632d2e3636382e3338372d312e3432362e35392d322e3139372e3539732d312e3532392d2e3230342d322e3139372d2e35396c2d382e3031332d342e37323161342e353220342e35322030203020312d312e3538392d312e363136632d2e3338342d2e3636352d2e3539342d312e3431382d2e3630382d322e313837762d392e3331632d2e3031332d2e3737352e3138352d312e3533382e3537322d322e32303861342e323520342e323520302030203120312e3632352d312e3539356c372e3838342d342e3539632e3636382d2e33383720312e3432362d2e353920322e3139372d2e353973312e3532392e32303420322e3139372e35396c372e38383420342e353961342e353220342e353220302030203120312e35383920312e363136632e3338342e3636352e35393420312e3431382e36303820322e31383776362e3033326c362e38352d342e303635762d362e303332632e3031332d2e3737352d2e3138352d312e3533382d2e3537322d322e32303861342e323520342e32352030203020302d312e3632352d312e3539354c34312e3435362032342e3539632d2e3636382d2e3338372d312e3432362d2e35392d322e3139372d2e3539732d312e3532392e3230342d322e3139372e35396c2d31342e38363420382e36353561342e323520342e32352030203020302d312e36323520312e353935632d2e3338372e36372d2e35383520312e3433342d2e35373220322e3230387631372e343431632d2e3031332e3737352e31383520312e3533382e35373220322e32303861342e323520342e323520302030203020312e36323520312e3539356c31342e38363420382e363535632e3636382e33383720312e3432362e353920322e3139372e353973312e3532392d2e32303420322e3139372d2e35396c31302e3038312d352e39303120362e38352d342e3036352031302e3038312d352e393031632e3636382d2e33383720312e3432362d2e353920322e3139372d2e353973312e3532392e32303420322e3139372e35396c372e38383420342e353961342e353220342e353220302030203120312e35383920312e363136632e3338342e3636352e35393420312e3431382e36303820322e31383776392e333131632e3031332e3737352d2e31383520312e3533382d2e35373220322e32303861342e323520342e32352030203020312d312e36323520312e3539356c2d372e38383420342e373231632d2e3636382e3338372d312e3432362e35392d322e3139372e3539732d312e3532392d2e3230342d322e3139372d2e35396c2d372e3838342d342e353961342e353220342e35322030203020312d312e3538392d312e363136632d2e3338352d2e3636352d2e3539342d312e3431382d2e3630382d322e313837762d362e3033326c2d362e383520342e30363576362e303332632d2e3031332e3737352e31383520312e3533382e35373220322e32303861342e323520342e323520302030203020312e36323520312e3539356c31342e38363420382e363535632e3636382e33383720312e3432362e353920322e3139372e353973312e3532392d2e32303420322e3139372d2e35396c31342e3836342d382e363535632e3635372d2e33393420312e3230342d2e393520312e3538392d312e363136732e3539342d312e3431382e3630392d322e3138375635352e353338632e3031332d2e3737352d2e3138352d312e3533382d2e3537322d322e32303861342e323520342e32352030203020302d312e3632352d312e3539356c2d31342e3939332d382e3738367a222066696c6c3d2223666666222f3e3c646566733e3c6c696e6561724772616469656e742069643d2242222078313d2230222079313d2230222078323d22323730222079323d2232373022206772616469656e74556e6974733d227573657253706163654f6e557365223e3c73746f702073746f702d636f6c6f723d2223636235656565222f3e3c73746f70206f66667365743d2231222073746f702d636f6c6f723d2223306364376534222073746f702d6f7061636974793d222e3939222f3e3c2f6c696e6561724772616469656e743e3c2f646566733e3c7465787420783d2233322e352220793d223233312220666f6e742d73697a653d223237222066696c6c3d2223666666222066696c7465723d2275726c282341292220666f6e742d66616d696c793d22506c7573204a616b617274612053616e732c44656a6156752053616e732c4e6f746f20436f6c6f7220456d6f6a692c4170706c6520436f6c6f7220456d6f6a692c73616e732d73657269662220666f6e742d7765696768743d22626f6c64223e",
  "linkReferences": {},
  "deployedLinkReferences": {}
}